:100000000C9437030C944D140C9426140C945F0339
:100010000C945F030C945F030C945F030C945F03D8
:100020000C945F030C945F030C945F030C945F03C8
:100030000C945F030C945F030C945F030C945F03B8
:100040000C94DC130C945F030C94AA130C9484138B
:100050000C945F030C945F030C945F030C945F0398
:100060000C9474140C945F0308000000BE922449A1
:10007000123EABAAAA2ABECDCCCC4C3E00000080DA
:10008000BEABAAAAAA3E00000000BF000000803F4D
:100090000000000000084178D3BB4387D1133D190D
:1000A0000E3CC3BD4282AD2B3E68EC8276BED98F3A
:1000B000E1A93E4C80EFFFBE01C4FF7F3F0000007E
:1000C0000000CDCCCC3D0AD7233C17B7D13877CC34
:1000D0002B329595E6241FB14F0A0000803FCDCC0E
:1000E000CC3D6F12833A95BFD6337D1D9026B3CE9B
:1000F000010C000020410000C84200401C4620BC0A
:10010000BE4CCA1B0E5AAEC59D74000103070F1FDB
:100110003F7F0080C0E0F0F8FCFE00000000003EE1
:100120005B4F5B3E3E6B4F6B3E1C3E7C3E1C183C67
:100130007E3C181C577D571C1C5E7F5E1C00183CC3
:100140001800FFE7C3E7FF0018241800FFE7DBE70C
:10015000FF30483A060E2629792926407F050507F3
:10016000407F05253F5A3CE73C5A7F3E1C1C08084F
:100170001C1C3E7F14227F22145F5F005F5F060914
:100180007F017F006689956A606060606094A2FF6D
:10019000A29408047E040810207E201008082A1C5F
:1001A00008081C2A08081E101010100C1E0C1E0C2B
:1001B00030383E3830060E3E0E06000000000000CB
:1001C000005F00000007000700147F147F14242A3A
:1001D0007F2A12231308646236495620500008070C
:1001E0000300001C2241000041221C002A1C7F1C2D
:1001F0002A08083E0808008070300008080808082F
:10020000000060600020100804023E5149453E0095
:10021000427F400072494949462141494D331814F3
:10022000127F1027454545393C4A49493141211142
:1002300009073649494936464949291E0000140034
:100240000000403400000008142241141414141457
:10025000004122140802015909063E415D594E7CB5
:100260001211127C7F494949363E414141227F416A
:1002700041413E7F494949417F090909013E4141C8
:1002800051737F0808087F00417F41002040413FB3
:10029000017F081422417F404040407F021C027FC2
:1002A0007F0408107F3E4141413E7F090909063E17
:1002B0004151215E7F0919294626494949320301E6
:1002C0007F01033F4040403F1F2040201F3F4038F8
:1002D000403F631408146303047804036159494DD3
:1002E00043007F4141410204081020004141417F09
:1002F000040201020440404040400003070800207F
:10030000545478407F28444438384444442838447E
:1003100044287F385454541800087E090218A4A4B5
:100320009C787F0804047800447D40002040403DD4
:10033000007F1028440000417F40007C047804784E
:100340007C080404783844444438FC1824241818E1
:10035000242418FC7C08040408485454542404043D
:100360003F44243C4040207C1C2040201C3C40302A
:10037000403C44281028444C9090907C4464544C59
:1003800044000836410000007700000041360800B4
:1003900002010204023C2623263C1EA1A161123A5E
:1003A0004040207A385454555921555579412254AA
:1003B000547842215554784020545579400C1E52AF
:1003C0007212395555555939545454593955545454
:1003D000580000457C410002457D420001457C40BB
:1003E0007D1211127DF0282528F07C5455450020FF
:1003F00054547C547C0A097F4932494949323A4471
:1004000044443A324A4848303A4141217A3A4240DB
:100410002078009DA0A07D3D4242423D3D404040AD
:100420003D3C24FF2424487E4943662B2FFC2F2B80
:10043000FF0929F620C0887E090320545479410021
:1004400000447D413048484A32384040227A007AA0
:100450000A0A727D0D19317D2629292F282629297E
:10046000292630484D4020380808080808080808A0
:10047000382F10C8ACBA2F102834FA00007B0000C7
:1004800008142A142222142A14085500550055AACB
:1004900055AA55AAFF55FF55FF000000FF00101098
:1004A00010FF00141414FF001010FF00FF1010F0D4
:1004B00010F0141414FC001414F700FF0000FF00E7
:1004C000FF1414F404FC141417101F10101F101F35
:1004D0001414141F00101010F0000000001F101062
:1004E00010101F10101010F010000000FF1010105E
:1004F000101010101010FF10000000FF140000FF7B
:1005000000FF00001F10170000FC04F41414171063
:10051000171414F404F40000FF00F7141414141456
:100520001414F700F7141414171410101F101F14CC
:100530001414F4141010F010F000001F101F00002D
:10054000001F14000000FC140000F010F01010FF59
:1005500010FF141414FF141010101F00000000F0FE
:1005600010FFFFFFFFFFF0F0F0F0F0FFFFFF0000D3
:10057000000000FFFF0F0F0F0F0F3844443844FCFA
:100580004A4A4A347E02020606027E027E02635511
:100590004941633844443C04407E201E2006027ECC
:1005A000020299A5E7A5991C2A492A1C4C720172DE
:1005B0004C304A4D4D303048784830BC625A463D48
:1005C0003E494949007E0101017E2A2A2A2A2A44FD
:1005D000445F444440514A444040444A5140000032
:1005E000FF0103E080FF000008086B6B083612363D
:1005F0002436060F090F060000181800000010101E
:10060000003040FF0101001F01011E00191D1712DB
:10061000003C3C3C3C0000000000000000080002E0
:1006200001000003040700000000000000000000BB
:100630000000250028002B000000000024002700F7
:100640002A00040404040404040402020202020254
:100650000303030303030102040810204080010286
:10066000040810200102040810208F152C181124F2
:100670001FBECFEFD8E0DEBFCDBF11E0A0E0B1E0FC
:10068000E6EEF8E302C005900D92AA39B107D9F75A
:1006900023E0AAE9B1E001C01D92A933B207E1F756
:1006A00013E0C6E3D3E004C02197FE010E942D1B96
:1006B000C533D107C9F70E9412160C94661C0C941E
:1006C0000000CF93DF9390E0FC01EA5AF94F2491A8
:1006D0008E5B994FFC0184918823C1F090E0880FD4
:1006E000991FFC01E85CF94FC591D491FC01E25DD2
:1006F000F94FA591B4919FB7F8948881E22FE095C6
:100700008E2388838C91E823EC939FBFDF91CF9158
:1007100008958091440290914502A0914602B091C3
:1007200047020196A11DB11D80934402909345029A
:10073000A0934602B09347020895AF92BF92CF9222
:10074000DF92EF92FF920F931F93CF93DF936C0191
:100750007B018B01040F151FEB015E01AE18BF0872
:10076000C017D10759F06991D601ED91FC91019024
:10077000F081E02DC6010995892B79F7C501DF913C
:10078000CF911F910F91FF90EF90DF90CF90BF908E
:10079000AF900895FC01538D448D252F30E0842FB8
:1007A00090E0821B930B541710F0CF960895019799
:1007B0000895FC01918D828D981761F0A28DAE0F86
:1007C000BF2FB11D5D968C91928D9F5F9F73928F0D
:1007D00090E008958FEF9FEF0895FC01918D828D39
:1007E000981731F0828DE80FF11D858D90E0089506
:1007F0008FEF9FEF0895FC01918D228D892F90E05E
:10080000805C9F4F821B91098F73992708958CE418
:1008100092E00E94FB0321E0892B09F420E0822F63
:10082000089580E090E0892B29F00E94070481114F
:100830000C9400000895FC01A48DA80FB92FB11DE0
:10084000A35ABF4F2C91848D90E001968F73992706
:10085000848FA689B7892C93A089B1898C918370E4
:1008600080648C93938D848D981306C00288F389DD
:10087000E02D80818F7D80830895EF92FF920F930A
:100880001F93CF93DF93EC0181E0888F9B8D8C8D3C
:1008900098131AC0E889F989808185FF15C09FB730
:1008A000F894EE89FF896083E889F98980818370F3
:1008B000806480839FBF81E090E0DF91CF911F91A2
:1008C0000F91FF90EF900895F62E0B8D10E00F5FC3
:1008D0001F4F0F731127E02E8C8D8E110CC00FB699
:1008E00007FCFACFE889F989808185FFF5CFCE0131
:1008F0000E941B04F1CFEB8DEC0FFD2FF11DE35A8D
:10090000FF4FF0829FB7F8940B8FEA89FB898081B3
:100910008062CFCFCF93DF93EC01888D8823B9F02D
:10092000AA89BB89E889F9898C9185FD03C08081FA
:1009300086FD0DC00FB607FCF7CF8C9185FFF2CF77
:10094000808185FFEDCFCE010E941B04E9CFDF91AE
:10095000CF91089590E0FC01E65EF94F2491FC01EF
:10096000EA5AF94F3491FC01EE5BF94FE491EE2322
:10097000C9F0222339F0233001F1A8F4213019F114
:10098000223029F1F0E0EE0FFF1FE25DF94FA59153
:10099000B4918FB7F894EC91611126C030953E2345
:1009A0003C938FBF08952730A9F02830C9F0243038
:1009B00049F7809180008F7D03C0809180008F7700
:1009C00080938000DFCF84B58F7784BDDBCF84B583
:1009D0008F7DFBCF8091B0008F778093B000D2CF16
:1009E0008091B0008F7DF9CF3E2BDACF8E3008F0AA
:1009F0008E508770806480937C0080917A00806440
:100A000080937A0080917A0086FDFCCF80917800F7
:100A10009091790008953FB7F894809130029091B9
:100A20003102A0913202B091330226B5A89B05C0D5
:100A30002F3F19F00196A11DB11D3FBFBA2FA92F5D
:100A4000982F8827BC01CD01620F711D811D911D5A
:100A500042E0660F771F881F991F4A95D1F70895C6
:100A600008951F93CF93DF93C1E0C093C4018823FF
:100A700099F1D091B8001091BA008091BC008A7BA6
:100A80008093BC0060E082E10E94AA0460E083E100
:100A90000E94AA0410920902C0930B0210920A024B
:100AA00061E082E10E94AA0461E083E10E94AA045D
:100AB0008091B9008E7F8093B9008091B9008D7FBD
:100AC0008093B90088E48093B80085E48093BC00EB
:100AD0001093BA00D093B800DF91CF911F91089581
:100AE0002091E501260F3327331F21323105ECF425
:100AF00020910902FC0190E080E0243069F082E05E
:100B00000895A091E5012191AC014B535E4FA40FD4
:100B1000B52FB11D2C930196861798F38091E501AE
:100B2000680F6093E50180E0089581E008950895DD
:100B30008FEF9FEF08958FEF9FEF08958091BE0193
:100B400090E09195819591090895CF92DF92EF926F
:100B5000FF920F931F93CF93DF937C01CB018A0108
:100B60002091BD01222389F0EB016B01C40ED51E3B
:100B7000CC15DD0569F06991D701ED91FC910190EB
:100B8000F081E02DC7010995F3CF642F0E94700515
:100B9000C801DF91CF911F910F91FF90EF90DF90EF
:100BA000CF900895CF93DF931F92CDB7DEB76983BF
:100BB0002091BD012223F9F02091BC01203258F090
:100BC00021E030E0FC013383228390E080E00F904D
:100BD000DF91CF9108958091BB01E82FF0E0E556B9
:100BE000FE4F998190838F5F8093BB018093BC01FE
:100BF00081E090E0ECCF61E0CE0101960E947005AB
:100C0000F7CF0895FC016370668B848195812681FE
:100C10003781613039F0633029F0918780873387DD
:100C200022870895318720879387828708952F929E
:100C30003F924F925F926F927F928F929F92AF926C
:100C4000BF92CF92DF92EF92FF920F931F93CF93B9
:100C5000DF93CDB7DEB76A970FB6F894DEBF0FBE4D
:100C6000CDBF9A8F898F7A8369834A01D22E1887E4
:100C70000F833701BC2CDC0159962D913C915A977A
:100C80002115310509F015C118968D919C91199780
:100C9000681779070CF0D7C11A968D919C91481767
:100CA00059070CF0D0C14C2C512CB6E0CB9E600DF6
:100CB000711D11247C876B87161617060CF0C3C1B3
:100CC000EA2DF0E0FA87E98793E0EE0FFF1F9A958F
:100CD000E1F7F88BEF87CF01840F951F18161906DF
:100CE0000CF0B1C1A98DBA8D58968C91811104C0B8
:100CF000BFEABD1508F4D394A98DBA8DED91FC918E
:100D000011970284F385E02DCD010995B5E0DB9EB6
:100D1000C0011124E981FA81FC83EB83312C212C61
:100D20009C01265E3E4F388F2F8B4A2D50E05E8B04
:100D30004D8BEF89F88DE20DF31D44919E828D82DB
:100D4000D12CC12C69817A81620D731D7A8B698BDC
:100D5000842F90E09C8B8B8BE98DFA8DA081B181E3
:100D600040FF82C0F1E0BF126FC0AF126DC01C9691
:100D7000ED91FC912F813885A4014C0D5D1D698991
:100D80007A89898D9A8D0995EB89FC89F595E79586
:100D90004E2F5FEFC51AD50A6D817E818D899E89A0
:100DA000680F791F7E836D8398E0C916D10481F6A0
:100DB000AFEF2A1A3A0AEB81FC81E40DF51DFC83A2
:100DC000EB83F5E02F16310409F0B3CF2F8138857E
:100DD00026153705B9F0A98DBA8DED91FC91B1E0DA
:100DE000BB1257C0AB1255C069817A816B5F7F4FD0
:100DF0000088F189E02D830128E030E0A401898D8D
:100E00009A8D0995A98DBA8DED91FC91119706885F
:100E1000F789E02DCD016A960FB6F894DEBF0FBEBC
:100E2000CDBFDF91CF911F910F91FF90EF90DF9099
:100E3000CF90BF90AF909F908F907F906F905F907A
:100E40004F903F902F9009941E96ED91FC91EF806A
:100E5000F88409851A8592014D815E816B817C81C0
:100E6000898D9A8D099590CF2F8138852615370564
:100E700009F48ACF31E0B31207C0A31205C01C9653
:100E8000ED91FC91930178CF1E96ED91FC91730149
:100E9000E0CF6B857C85641975090684F785E02DA4
:100EA00073010F8518899201A401898D9A8D099586
:100EB000A9CFF90134969491329745915491D91A5A
:100EC000B7E0DB9E400D511D1124F90125913491AD
:100ED0003C8B2B8BFA0125903490FA01329674905A
:100EE00031963491398B329664903196449041E03A
:100EF0004C1518F04A1508F07FC0662D062C000C22
:100F0000770B7C836B83842D042C000C990B9E83C0
:100F10008D83A98DBA8DED91FC9111970284F38593
:100F2000E02DCD010995512CD12CC12CEA2DF0E0FA
:100F3000FA87E9872B2D30E03C872B87A401440DED
:100F4000511D47FC5A95588F4F8B69817A81660DE8
:100F5000711D67FC7A957E876D877989C71608F0C1
:100F600051CF2C2D30E04D815E81420F531FA9855A
:100F7000BA854A9FC0014B9F900D5A9F900D112436
:100F8000FC01E80DF91DF88BEF87852D612C4F8949
:100F9000588D420F531F5E8B4D8B671408F050C065
:100FA00044244394480E877041F4C1010196EB89B3
:100FB000FC89E20DF31DD4901C01D7FE19C0A98D48
:100FC000BA8DED91FC91662D70E0B1E0BB1219C0B5
:100FD000AB1217C02D853E85620F731F0484F58503
:100FE000E02D2F8138854D895E89898D9A8D0995EF
:100FF000DD0C6394842DD1CF1E821D821C821B8246
:1010000088CF4B815C81640F751FAB85BC856A9F5F
:10101000C0016B9F900D7A9F900D112469817A8198
:10102000680F791F0684F785E02DEF80F884098525
:101030001A859D014F855889898D9A8D0995D8CF3C
:10104000570CC3948ACF6A960FB6F894DEBF0FBED2
:10105000CDBFDF91CF911F910F91FF90EF90DF9067
:10106000CF90BF90AF909F908F907F906F905F9048
:101070004F903F902F9008958F929F92AF92CF9272
:10108000EF92FF920F931F93CF93DF93EC01262FE4
:10109000898D9A8D009709F051C06A30D1F41D8670
:1010A0001C868D8948E0849F900111248E859F8540
:1010B000820F931F9F878E8781E090E0DF91CF9111
:1010C0001F910F91FF90EF90CF90AF909F908F90D6
:1010D00008956D3089F3CC88AD888F898823C1F05D
:1010E0008C859D8536E0C39E800D911D1124488519
:1010F00059854817590764F44E855F851D861C86FF
:1011000038E0A39EC0011124840F951F9F878E870E
:10111000EA88FB88088919894E855F856C857D85FD
:10112000CE010E9417062C898C859D8546E0249F60
:10113000800D911D11249D878C87BECF6A3069F484
:101140001D861C86FC013896E4912D898E859F852D
:10115000E29F800D911D1124ADCF6D3009F4ACCF0D
:10116000FC0134963491631708F4A6CF3296E491CB
:10117000E61708F4A1CFFC01329685909490462F93
:10118000431B342F47E0349F800C911C1124F40141
:10119000329634913196E4913323A9F1EE2399F1FB
:1011A000CC88F4013596E491AD884F89442301F150
:1011B0000E2E000CFF0BE30FF11DCE9EA001CF9E63
:1011C000500D11246C857D85460F571F68857985E4
:1011D000641775076CF44E855F851D861C86FC01BF
:1011E0003896E491AE9E400D511D11245F874E87C5
:1011F000EA88FB88088919894E855F856C857D851D
:10120000CE010E941706F4013496E4912C898C8556
:101210009D85E29F800D911D11248DCF6F927F924D
:101220008F929F92AF92BF92CF92DF92EF92FF92F6
:101230000F931F93CF93DF93EC016B015A01390198
:101240004801E881F9810284F385E02D0995E88160
:10125000F9810288F389E02D87019301A501B60188
:10126000CE010995A501480D591D41505109E8814C
:10127000F9810288F389E02D9301B601CE01099529
:10128000E881F9810088F189E02D9401A501B6017A
:10129000CE010995C60CD71CB60161507109E881D1
:1012A000F9810088F189E02D9401A501CE0109950D
:1012B000E881F9810688F789E02DCE01DF91CF9191
:1012C0001F910F91FF90EF90DF90CF90BF90AF9064
:1012D0009F908F907F906F9009946F927F928F92E2
:1012E0009F92AF92BF92CF92DF92EF92FF920F93B5
:1012F0001F93CF93DF935C01EB016A014901380131
:101300008701DC01ED91FC916217730719F56416F2
:1013100075062CF0962D872D3A01C92ED82E9601F0
:10132000261937092F5F3F4F048CF58DE02DA3015F
:10133000BE01C5010995DF91CF911F910F91FF90DB
:10134000EF90DF90CF90BF90AF909F908F907F9065
:101350006F9008954615570591F42617370724F026
:10136000892D4B01C22FD82F9E01281939092F5FD3
:101370003F4F068CF78DE02DA601B401DACF028431
:10138000F385E02D0995D501ED91FC910488F5894F
:10139000E02D83019401A601BE01C5010995D50187
:1013A000ED91FC910688F789E02DC501DF91CF9181
:1013B0001F910F91FF90EF90DF90CF90BF90AF9073
:1013C0009F908F907F906F900994EF92FF920F9370
:1013D0001F93DC011A960D911C911B9718962D9165
:1013E0003C911997ED91FC9100A0F1A1E02D7B01BA
:1013F00050E040E070E060E009951F910F91FF9090
:10140000EF9008954F925F926F927F928F929F928A
:10141000AF92BF92CF92DF92EF92FF920F931F9302
:10142000CF93DF936C012B015A0139014801DC0194
:10143000ED91FC910284F385E02D0995E201640CA5
:10144000751CD601ED91FC91C615D7055CF400889A
:10145000F189E02D87019401A501BE01C60109951E
:101460002196EFCF0688F789E02DC601DF91CF9155
:101470001F910F91FF90EF90DF90CF90BF90AF90B2
:101480009F908F907F906F905F904F9009948F9274
:101490009F92AF92BF92CF92DF92EF92FF920F9303
:1014A0001F93CF93DF93EC015B014A016901E8814F
:1014B000F9810284F385E02D099595012C0D3D1DE0
:1014C00021503109E881F9810488F589E02D7801FE
:1014D0008401A401B501CE010995E881F98106884E
:1014E000F789E02DCE01DF91CF911F910F91FF90F1
:1014F000EF90DF90CF90BF90AF909F908F90099426
:101500008F929F92AF92BF92CF92DF92EF92FF9213
:101510000F931F93CF93DF93EC015B014A016901A5
:101520007801E881F9810284F385E02D0995C80CE2
:10153000D91C860101501109E881F9810488F589D7
:10154000E02D9501A401B501CE010995E881F9814D
:101550000688F789E02DCE01DF91CF911F910F9181
:10156000FF90EF90DF90CF90BF90AF909F908F90C3
:101570000994EF92FF920F931F93DC01ED91FC9180
:1015800000A0F1A1E02D09951F910F91FF90EF9020
:1015900008950F931F93DC01ED91FC91068CF78D5C
:1015A000E02D09951F910F9108950F931F93DC0172
:1015B000ED91FC91048CF58DE02D09951F910F9113
:1015C0000895DC01ED91FC910084F185E02D0994F2
:1015D0002F923F924F925F926F927F928F929F9243
:1015E000AF92BF92CF92DF92EF92FF920F931F9331
:1015F000CF93DF9300D000D000D0CDB7DEB73C0151
:101600006A013E832D83FC82EB825801A41AB50A3D
:10161000B7FE03C0B194A194B1088D809E80861A54
:10162000970A97FE03C09194819491088A149B04B1
:101630005CF0902F812F0D811E819D838E839C2DC8
:101640008D2D6B01692F782F0C151D055CF09D8188
:101650008E817E836D83692F782F902F812F860155
:10166000C92ED82E1601201A310A2B012D813E8158
:10167000421A530A57FE03C0519441945108710114
:1016800037FE03C03FEFE31AF30AF594E7948D8128
:101690009E81861797075CF5A1E0B0E0BA83A98325
:1016A000C016D1064CF1D301ED91FC910484F5856F
:1016B000E02D2B813C81A8016D817E818A149B04E1
:1016C0001CF04D815E81B801C3010995E418F5084D
:1016D000F7FE0AC02D813E8189819A81280F391F2A
:1016E0003E832D83E20CF31C0F5F1F4FD9CF2FEFEA
:1016F0003FEF3A832983D4CF26960FB6F894DEBF06
:101700000FBECDBFDF91CF911F910F91FF90EF9052
:10171000DF90CF90BF90AF909F908F907F906F9011
:101720005F904F903F902F900895EF92FF920F930C
:101730001F93CF93DF93EC01EC80FD806E157F0546
:101740000CF070C057FF04C0240F351F50E040E07C
:101750008E819F81FA01E20FF31F8E179F071CF401
:101760009C01241B350B121613060CF05BC0922F44
:10177000842F8695869586958E9DD0018F9DB00D80
:1017800011246A0F7B1FAF8DB8A1A60FB71F47703A
:1017900049F188E0841B482F682F70E0FB01EE5E62
:1017A000FE4FE491281708F063C0621B71092FEF08
:1017B00030E002C0359527956A95E2F7E2230130C3
:1017C000110539F0B0F10230110561F58C91E8276F
:1017D00002C08C91E82BEC93941720F12C813D8171
:1017E000A20FB31FE92FE41BE83078F00230110597
:1017F00021F58E2F9C9190959C932C813D81A20F79
:10180000B31F88508830B0F7E770EE2359F0F0E04E
:10181000E65FFE4FE49101301105F9F010F102305E
:10182000110519F1DF91CF911F910F91FF90EF906A
:101830000895E0958C91E823CECF81E00115110544
:1018400009F480E081959E2F8C932C813D81A20F1D
:10185000B31F98509830C0F7D7CF8C91E82BEC93FA
:10186000E1CFE0958C91E823FACF8C91E827F7CF70
:101870000130110509F4ADCFE0F20230110509F491
:10188000A5CFAE0DBF1DAECF0F931F93CF93DF93A8
:1018900077FF04C0260F371F70E060E0DC0114966C
:1018A000CD91DC91FB01E20FF31FCE17DF071CF493
:1018B0009E01261B370B121613064CF5FA0157FD35
:1018C0003796A3E0F595E795AA95E1F7EC9FD0014F
:1018D000ED9FB00DFC9FB00D11246A0F7B1FDC0142
:1018E0005F96ED91FC91E60FF71F4770552781E059
:1018F00090E001C0880F4A95EAF7482F01301105A2
:1019000059F0A8F02E0F3F1F02301105E1F0DF91D2
:10191000CF911F910F9108952E0F3F1FE217F307EC
:10192000B1F38191DF011197842B8C93F7CF8095D0
:101930002E0F3F1FE217F30751F39191DF0111972B
:1019400098239C93F7CFE217F30709F38191DF0106
:10195000119784278C93F7CF8F929F92AF92BF926B
:10196000CF92DF92EF92FF920F931F93CF93DF936B
:10197000EC01162F8D8D9E8D892B09F4AEC02DA9FB
:101980003EA94FA958AD60E074E284EF90E00E9458
:101990000B1B20513109410951095695479537953F
:1019A00027952093B800112309F4A7C017EA8D8D5D
:1019B0009E8D009709F41CC129A131E03093BD012F
:1019C00020939A011092BB011092BC01DC01ED91B1
:1019D000FC910190F081E02D60E009958D8D9E8D48
:1019E000DC01ED91FC910190F081E02D612F0995D2
:1019F0000091BC01013208F0A7C010919A010E9429
:101A00000B056B017C0180910902811178C082E095
:101A10008093090281E080930B028FEF809308028C
:101A200010922D0200932C02ABE9B1E0ECE0F2E061
:101A300080E00813B5C010922E0280912E02110F83
:101A4000182B10932E0280910A02813009F0ACC04D
:101A500010920A020E940B056B017C0180912E02FC
:101A60008093BB008091C0019091C101A091C201FF
:101A7000B091C301892B8A2B8B2BA1F00E940B05FF
:101A80000091C0011091C1012091C2013091C301A8
:101A90006C197D098E099F09061717072807390752
:101AA00008F44EC08091BC0083FDD8CF85EC8093B4
:101AB000BC000E940B056B017C0180910902823001
:101AC00009F474C0809108028F3FF1F180910802FF
:101AD0008032D1F18091080237C08B8D9C8D892B8B
:101AE00021F09EAD8FAD9CBD8DBDEFA5F8A9908175
:101AF0008CA980958923808356CF16EA58CF809190
:101B0000C0019091C101A091C201B091C301892B84
:101B10008A2B8B2B09F477CF0E940B058090C00194
:101B20009090C101A090C201B090C3016C197D09D1
:101B30008E099F0986169706A806B90608F063CF96
:101B40008091BF010E9431051092BB011092BC012F
:101B50001092BD018D8D9E8D892B09F47DC029AD1C
:101B60003AAD4BAD5CAD60E074E284EF90E00E9472
:101B70000B1B20513109410951095695479537955D
:101B800027952093B800DF91CF911F910F91FF907F
:101B9000EF90DF90CF90BF90AF909F908F9008957F
:101BA0009D9191938F5F45CF85EE81CF8091C0014C
:101BB0009091C101A091C201B091C301892B8A2BE0
:101BC0008B2B09F47ACF0E940B050091C001109174
:101BD000C1012091C2013091C3016C197D098E09A8
:101BE0009F09061717072807390708F066CFA8CFFF
:101BF000EDA5FEA590818BA98095892380838B8D8F
:101C00009C8D892B39F01EBD00000DB407FEFDCF61
:101C10008EB5A0CF28E030E090E8E9A5FAA589A923
:101C2000412F4923A9F04081842B8083EBA5FCA59B
:101C300080814AA9842B8083EBA5FCA540818AA9D9
:101C400080958423808396952150310931F782CF86
:101C5000408180958423E9CFEFA5F8A980819CA9D4
:101C6000892B808390CF0F931F93FA01DC01569646
:101C70004C9156974230E9F04330A1F1413061F583
:101C800014964D915C91DA01AE1BBF0BFD01E21B76
:101C9000F30B77FD0BC0DC0116964D915C91641738
:101CA000750724F4AB01BF010E94440C1F910F91F2
:101CB000089514964D915C91DA01A61BB70BBD01F6
:101CC00061507109DC0116964D915C91DA01AE1BF1
:101CD000BF0BFD01E21BF30B77FDE8CFAF010E94C4
:101CE000950BE4CF16964D915C91DA01A61BB70BCC
:101CF000BD0161507109CDCF0F931F93FA01DC0133
:101D000056964C9156974230A9F0433091F14130AC
:101D100019F514964D915C91DA01AE1BBF0BFD01D4
:101D20003197F7FD04C0AB01BF010E94950B1F91D5
:101D30000F91089514964D915C91DA01A61BB70B93
:101D4000BD01DC0116964D915C91DA01AE1BBF0B13
:101D5000FD013197621B730BF7FDE9CFDC0116968D
:101D60004D915C91E417F50714F7AF010E94440C04
:101D7000DECF16964D915C91DA01A61BB70BBD0123
:101D8000621B730BCECFFC0177FD64C0808591850B
:101D9000681779070CF05EC057FD5CC0828593859B
:101DA000481759070CF056C086898230B1F083304D
:101DB00029F1813041F484819581841B950BAB011D
:101DC000BC01615071092130310509F108F443C0AB
:101DD0002230310509F463C0089584819581DC01C6
:101DE000A61BB70BBD016150710986819781DC018B
:101DF000A41BB50BAD0141505109E5CF86819781F8
:101E0000861B970BBA01AC0141505109DCCFCA01C6
:101E100057FD0796A3E095958795AA95E1F7A481CC
:101E2000B5818A9F90018B9F300D9A9F300D1124B0
:101E3000620F731F078CF0A1E02DE60FF71F4770AC
:101E4000552721E030E001C0220F4A95EAF7808152
:101E5000822B80830895CA0157FD079633E095953C
:101E600087953A95E1F7A481B5818A9F90018B9F70
:101E7000300D9A9F300D1124620F731F078CF0A153
:101E8000E02DE60FF71F4770552781E090E001C075
:101E9000880F4A95EAF7809590818923DACFCA01A5
:101EA00057FD079623E0959587952A95E1F7A4813C
:101EB000B5818A9F90018B9F300D9A9F300D112420
:101EC000620F731F078CF0A1E02DE60FF71F47701C
:101ED000552721E030E001C0220F4A95EAF78081C2
:101EE0008227B7CF089590E080E00895CF93DF93E5
:101EF000EC0188819981DC01ED91FC910190F081E8
:101F0000E02D09952A813B81820F931F9B838A8351
:101F1000DF91CF910895CF93DF93EC018881998170
:101F2000DC01ED91FC910280F381E02D09952A817D
:101F30003B81820F931F9B838A83DF91CF9108950A
:101F40008F929F92AF92BF92CF92DF92EF92FF92C9
:101F50000F931F93CF93DF93CDB7DEB766970FB67E
:101F6000F894DEBF0FBECDBF6C018E01095E1F4F1E
:101F700078018AE0882E912CA12CB12CCB01BA01DA
:101F8000A50194010E940B1B942F852F605DF80121
:101F900062938F01A901692F782F411551056105C1
:101FA000710561F7A7014E1B5F0BBF01C6010E94BF
:101FB0008B0F66960FB6F894DEBF0FBECDBFDF91D4
:101FC000CF911F910F91FF90EF90DF90CF90BF9036
:101FD000AF909F908F900895EF92FF920F931F9371
:101FE000CF93DF93EC017B0162E20E94760F8701C1
:101FF000F80161918F01662391F0EAE5F1E0F2804A
:10200000FF2049F0329681816813F9CF6CE5CE014B
:102010000E94760F6F2DCE010E94760FE9CF62E20B
:10202000CE01DF91CF911F910F91FF90EF900C9413
:10203000760FFC012581222339F0F8E02F02900170
:102040001124820F931F089590E080E00895FB0112
:1020500001900020E9F73197AF01461B570B0C9414
:102060008B0F2F923F924F925F926F927F928F923F
:102070009F92AF92BF92CF92DF92EF92FF920F9317
:102080001F93CF93DF93CDB7DEB76C970FB6F8945D
:10209000DEBF0FBECDBF8C011B01DC0114968C91FD
:1020A00014978F77863009F474C278F48230B0F0D8
:1020B000843008F04CC212964D915C9113976D914B
:1020C0007C91C1010E948B0F26C28C3069F160F4B3
:1020D000883009F459C28A3009F43FC26BE671E0D6
:1020E000C1010E942710E5C1803209F4ECC180349F
:1020F000A9F76BE5C1010E94760FF80100811181FB
:102100000115110509F4DAC1B101C8010E943110AD
:10211000C8010E9419108C01892B09F4CFC16CE20F
:10212000C1010E94760FECCFF801C080D180E2801F
:10213000F380A7019601C701B6010E94A81881117A
:10214000CDCF20E030E0A901C701B6010E94A81858
:10215000882379F0A7019601C701B6010E943C18B7
:102160009B01AC01C701B6010E94A818882309F49D
:10217000B5CF20E030E0A901C701B6010E94A81840
:1021800087FF08C06DE2C1010E94760FF7FAF09454
:10219000F7F8F09420E836E948E15BE4C701B601BE
:1021A0000E94001A87FD81C074E1A72EB12C00E2C5
:1021B00010E0188E1F8AF501EE50FF4F25913591E2
:1021C00045915491C701B6010E94001A87FD13C0C2
:1021D000F501EE53FF4F2591359145915491C7017B
:1021E000B6010E94551A6B017C012F89388D200F92
:1021F000311F388F2F8B1595079534E0A31AB1083E
:102200008CEFA8168FEFB806B1F655245A9420E04B
:1022100030E0A901C701B6010E94001A18160CF09F
:102220004BC02CEA35EC47E257E3C701B6010E94E8
:10223000A81818160CF440C0A52DB4E0AB02C001DC
:102240001124912C812CFC01E652FF4F3F019C018F
:102250002E503F4F59013FEF531671F1F301E80D36
:10226000F91D6591759185919491A70196010E9440
:10227000001A18169CF4F501E80DF91D2591359109
:1022800045915491C701B6010E94551A6B017C011A
:102290008F89988D801B910B988F8F8B1595079543
:1022A0005A9494E0891A9108D6CF00E210E055E0E4
:1022B000552E188E1F8AABCFC701B6010E941F1979
:1022C0004B015C012B013C0106E080E492E4AFE0AD
:1022D000B0E0898F9A8FAB8FBC8F102F01509AE09E
:1022E0004916510461047104C8F0698D7A8D8B8D93
:1022F0009C8D2AE030E040E050E00E940B1B298FCB
:102300003A8F4B8F5C8FC301B2012AE030E040E08E
:1023100050E00E940B1B29013A01DFCFC501B40137
:102320000E944E199B01AC01C701B6010E943B18E7
:102330006B017C01698D7A8D8B8D9C8D0E944E196D
:102340009B01AC01C701B6010E94551A2B013C014B
:102350000E941F196B017C010E944E199B01AC0168
:10236000C301B2010E943B189B01AC010E943C18C2
:102370000E941F19C60ED71EE81EF91E898D9A8D60
:10238000AB8DBC8DC816D906EA06FB06D8F09FEFC8
:10239000891A990AA90AB90AAF89B88DAB2B39F104
:1023A000BAE08B169104A104B10408F1EF89F88D0D
:1023B0003196F88FEF8BC12CD12C7601812C912C8A
:1023C000540183942AE0422E512C612C712CC701B8
:1023D000B601A30192010E940B1B672B682B692B8E
:1023E00051F4111644F469017A011150F0CFC12C57
:1023F000D12C7601E7CFB501A401C1010E94A00F45
:10240000112371F14E01F1E18F0E911C012F540146
:102410009AE0492E512C612C712C015068F0C701B3
:10242000B601A30192010E940B1B605DD4016E9363
:102430004D0169017A01F1CF812F90E0BC016095D7
:102440007095F501E81BF90B31978EE280834427E4
:102450005527461B570B6A0D7B1DC1010E948B0F30
:10246000EF89F88DEF2B29F165E6C1010E94760F07
:102470000F89188D17FF07C06DE2C1010E94760F0A
:10248000119501951109FE0177969F018AE0E82ECA
:10249000F12CC801B7010E94F71A805D82938B016D
:1024A000672BB9F7A9014E1B5F0BBF01C1010E9449
:1024B0008B0FD10112968D919C9130C06DE5C101B9
:1024C0000E94760FF6CF6BE7C1010E94760FF801EC
:1024D0000081118101151105D1F0D80116966D9179
:1024E0007C91C1010E94EC0F6AE3C1010E94760F4A
:1024F000B101C8010E943110C8010E9419108C015D
:10250000892B29F06CE2C1010E94760FE3CF6DE7C1
:10251000C1010E94760FF101828193816C960FB602
:10252000F894DEBF0FBECDBFDF91CF911F910F9109
:10253000FF90EF90DF90CF90BF90AF909F908F90E3
:102540007F906F905F904F903F902F9008956D9186
:102550007C91C1010E94EC0FDECFCD90DD90ED901B
:10256000FC90B701A601F7FE0BC06DE2C1010E940D
:10257000760F44275527BA014C195D096E097F096A
:10258000C1010E94A00FC7CF4D915D916D917C91CB
:10259000F7CF8C9160E771E0811102C065E771E0CF
:1025A000C1010E942710B7CF0E94581C85ED80936F
:1025B000BC008091C0019091C101A091C201B09175
:1025C000C3010796A11DB11D23E0B695A795979568
:1025D00087952A95D1F72091BC0024FD03C0109265
:1025E000090208954091C0015091C1016091C2015A
:1025F0007091C301452B462B472B69F30097A1052A
:10260000B10541F025E32A95F1F700000197A109F2
:10261000B109E1CF8091BF010C943105CF92DF92D7
:10262000EF92FF920F931F93CF93DF93FC0184816E
:10263000982F9F7739F4807880628483118210828A
:1026400013821282848185FD0CC0D0E0C0E0CE01EF
:10265000DF91CF911F910F91FF90EF90DF90CF907E
:1026600008956115710589F37A016B018F01C081AD
:10267000D1812097C1F16E817F816C157D0539F381
:102680006115710529F0C6010E945D1C892BF9F2C4
:10269000CE010E941910EC01ECCFE9012897F70157
:1026A000D583C483209789F2D8011296ED91FC91CD
:1026B0001397309791F0CE018E1B9F0B23E09595D9
:1026C00087952A95E1F785831396DC93CE9312972D
:1026D0001D821C82DF82CE82BACFF801D183C083F3
:1026E000D383C283F5CFD70114962D913C911597D2
:1026F00012968D919C9108962817390770F681E003
:10270000D70118968C93A3CF1F920F920FB60F92FA
:1027100011242F933F934F935F936F937F938F93E6
:102720009F93AF93BF93EF93FF938CE492E00E944B
:102730001B04FF91EF91BF91AF919F918F917F917A
:102740006F915F914F913F912F910F900FBE0F901E
:102750001F9018951F920F920FB60F9211242F936E
:102760008F939F93EF93FF93E0915C02F0915D0252
:102770008081E0916202F091630282FD1BC0908132
:10278000809165028F5F8F7320916602821741F0FE
:10279000E0916502F0E0E45BFD4F958F8093650268
:1027A000FF91EF919F918F912F910F900FBE0F90FE
:1027B0001F9018958081F4CF1F920F920FB60F9241
:1027C00011242F933F938F939F93AF93BF93809147
:1027D000340290913502A0913602B09137023091C7
:1027E0002F0223E0230F2D3758F50196A11DB11DAF
:1027F00020932F028093340290933502A0933602E7
:10280000B09337028091300290913102A091320250
:10281000B09133020196A11DB11D809330029093B7
:102820003102A0933202B0933302BF91AF919F91D6
:102830008F913F912F910F900FBE0F901F90189581
:1028400026E8230F0296A11DB11DD2CF1F920F9231
:102850000FB60F9211242F933F934F935F936F9373
:102860007F938F939F93AF93BF93EF93FF93E091E9
:102870000201F09103010995FF91EF91BF91AF9192
:102880009F918F917F916F915F914F913F912F9188
:102890000F900FBE0F901F9018951F920F920FB6BA
:1028A0000F9211242F933F934F935F936F937F93D6
:1028B0008F939F93AF93BF93EF93FF93E0910001AA
:1028C000F09101010995FF91EF91BF91AF919F9117
:1028D0008F917F916F915F914F913F912F910F90C9
:1028E0000FBE0F901F9018951F920F920FB60F9268
:1028F00011242F933F934F935F936F937F938F9305
:102900009F93AF93BF93EF93FF938091B900887F1C
:10291000803609F44AC0F0F5883209F4A5C018F5EC
:10292000803109F499C0B8F4882309F4F5C08830DF
:1029300009F492C0FF91EF91BF91AF919F918F9158
:102940007F916F915F914F913F912F910F900FBEAB
:102950000F901F901895883109F486C0803251F786
:102960008093080214C0803409F49BC040F4803383
:10297000B9F38833F9F68093080285ECAEC0803550
:1029800009F483C0883509F494C0883499F60E940C
:10299000D612D0CF883909F48AC038F5883729F0A3
:1029A00050F4883611F0803729F683E080930902CD
:1029B0001092070255C0883809F479C0803919F09F
:1029C000803809F0B7CF80910702803208F06FC0DD
:1029D000E091070281E08E0F809307028091BB0097
:1029E000F0E0E951FE4F80833BC0803B39F0D0F4EA
:1029F000803A09F477C0883A09F09CCF84E080934C
:102A000009021092E6011092E501F0E0E0E009957C
:102A10008091E50181110FC081E08093E501109262
:102A2000C50109C0803C09F4A8CF883C09F4A5CFB2
:102A3000883B09F07FCFE091E60181E08E0F809323
:102A4000E601F0E0EB53FE4F80818093BB00909154
:102A5000E6018091E50129C080912E028093BB00A0
:102A600085EC8093BC0066CF90912D0280912C0262
:102A7000981758F5E0912D0281E08E0F80932D027A
:102A8000F0E0E45FFD4F8081E9CFE0912D0281E02D
:102A90008E0F80932D028091BB00F0E0E45FFD4F2C
:102AA000808390912D0280912C029817C8F285E8BE
:102AB000D8CFE0912D0281E08E0F80932D0280917E
:102AC000BB00F0E0E45FFD4F808380910B02811139
:102AD0005ECF81E080930A0284EA8093BC0010926A
:102AE000090228CF85EC8093BC00109209028091E6
:102AF0000702803230F4E0910702F0E0E951FE4F26
:102B000010826091070270E087EE91E0F0E0E0E073
:102B10000995109207020ECF1092080238CFECE40C
:102B2000F2E01382128248EE53E060E070E04483EA
:102B30005583668377838EE091E09183808385EC73
:102B400090E09587848784EC90E09787868780EC77
:102B500090E0918B808B81EC90E0938B828B82EC68
:102B600090E0958B848B86EC90E0978B868B118E12
:102B7000128E138E148EA9EEB2E013961C921E9242
:102B8000129714964D935D936D937C93179780E203
:102B900091E011969C938E93E5EFF2E013821282FE
:102BA00020E830E03583248380E490E097838683B7
:102BB0003187208793878287168A15861486178621
:102BC000168681E0858B848B2FEF3FEF338B228B32
:102BD000318B208B878B108E128E118E82E391E0C9
:102BE00091838083148E138EB68FA58F10A2178EBB
:102BF0008FEF84A385A386A387A380A780E89AE1AB
:102C0000A6E0B0E085AB96ABA7ABB0AF80EA96E8A4
:102C1000A1E0B0E081AF92AFA3AFB4AF80E586AFE3
:102C200017AE0895CF93DF93CDB7DEB7CC5DD10952
:102C30000FB6F894DEBF0FBECDBF789484B5826026
:102C400084BD84B5816084BD85B5826085BD85B550
:102C5000816085BD80916E00816080936E001092CE
:102C60008100809181008260809381008091810049
:102C700081608093810080918000816080938000DA
:102C80008091B10084608093B1008091B000816038
:102C90008093B00080917A00846080937A00809164
:102CA0007A00826080937A0080917A0081608093BC
:102CB0007A0080917A00806880937A001092C10037
:102CC0008EE00E9461038FE00E94610389E893E037
:102CD0009093030180930201809169008C6080933E
:102CE0006900E99AE0915C02F0915D0282E08083E4
:102CF000E0915802F09159021082E0915A02F0914D
:102D00005B0280E1808310926402E0916002F091A6
:102D1000610286E08083E0915E02F0915F02808133
:102D200080618083E0915E02F0915F028081886023
:102D30008083E0915E02F0915F02808180688083F1
:102D4000E0915E02F0915F0280818F7D80835E0161
:102D50002FE0A20EB11C8E0109521F4F81E8882E70
:102D600081E0982E90E0292E90E0392EBA82A98237
:102D7000BC82AB821E830D8318870F8319868E85D4
:102D800080788E872FB7F894809134029091350225
:102D9000A0913602B09137022FBF40914802509166
:102DA000490260914A0270914B02841B950BA60B5D
:102DB000B70B883E9340A105B10508F445C02FB775
:102DC000F8948091340290913502A0913602B0912E
:102DD00037022FBF8093480290934902A0934A0282
:102DE000B0934B026091440270914502809146027B
:102DF000909147020E944E192BED3FE049EC50E4C0
:102E00000E94551A26E636E646E650E40E94551A18
:102E10002BE237E846E15EE30E94551A20E030E0FD
:102E200040E752E40E94AD18609340027093410263
:102E30008093420290934302109244021092450202
:102E400010924602109247028EE00E94F604BC01E6
:102E5000990F880B990B0E9450199B01AC0160E0FF
:102E600070EC8FE794E40E94AD1820E030E040E879
:102E70005FE30E943B1820E030E44CE156E40E94FE
:102E8000551A0E940D1A6B017C012CE63FEC48E5B7
:102E900054E30E94551AA70196010E94551AA701F2
:102EA00096010E94551A2B013C0126ED34E649E7B4
:102EB00059E3C701B6010E94551A2BEC38E444E8E7
:102EC0005AE30E943C189B01AC01C301B2010E946D
:102ED0003C189B01AC0160E070E080E89FE30E9439
:102EE000AD1823E333E948E853E40E943B186B0133
:102EF0007C01C0923C02D0923D02E0923E02F092F0
:102F00003F028FE00E94F604BC01990F880B990BD9
:102F10000E9450199B01AC0160E070EC8FE794E4D3
:102F20000E94AD1820E030E040E85FE30E943B18CB
:102F300020E030E44CE156E40E94551A9B01AC01BC
:102F400060E079ED88EF97E40E94AD1826EE39E352
:102F50004DE450E40E94551A2B013C014092380286
:102F60005092390260923A0270923B02AE014F5F7A
:102F70005F4F6BE771E0CE010A960E940E13FC01D1
:102F8000892B31F09481907894609483918280822F
:102F9000AE014F5F5F4F68E871E0CE010A960E9474
:102FA0000E13FC01892B41F0948190789C609483EE
:102FB0004082518262827382AE014F5F5F4F6DE843
:102FC00071E0CE010A960E940E13FC01892B41F09C
:102FD000948190789C609483C082D182E282F38253
:102FE000AE014F5F5F4F62E971E0CE010A960E9429
:102FF0000E13FC01892B81F0409140025091410257
:103000006091420270914302948190789C60948315
:1030100040835183628373838CE492E0F80191834F
:10302000808313821282B801CE010A960E94311069
:1030300042E050E066E971E08CE492E00E949D037A
:103040002114310409F492CE0E940704882309F464
:103050008DCE0E9400008ACE82E391E09093F6022A
:103060008093F5028091140390911503009711F05D
:103070000C94CF1B08955058BB27AA270E945318C1
:103080000C94C6190E94B81938F00E94BF1920F09C
:1030900039F49F3F19F426F40C94B5190EF4E09519
:1030A000E7FB0C94AF19E92F0E94D71958F3BA1710
:1030B000620773078407950720F079F4A6F50C944E
:1030C000F9190EF4E0950B2EBA2FA02D0B01B901C2
:1030D00090010C01CA01A0011124FF27591B99F08E
:1030E000593F50F4503E68F11A16F040A22F232F9A
:1030F000342F4427585FF3CF469537952795A795EA
:10310000F0405395C9F77EF41F16BA0B620B730B90
:10311000840BBAF09150A1F0FF0FBB1F661F771F01
:10312000881FC2F70EC0BA0F621F731F841F48F4B6
:10313000879577956795B795F7959E3F08F0B0CF3F
:103140009395880F08F09927EE0F97958795089526
:103150000E948B1908F481E008950E94C1180C9414
:10316000C6190E94BF1958F00E94B81940F029F4FE
:103170005F3F29F00C94AF1951110C94FA190C947B
:10318000B5190E94D71968F39923B1F3552391F328
:10319000951B550BBB27AA2762177307840738F0C6
:1031A0009F5F5F4F220F331F441FAA1FA9F335D023
:1031B0000E2E3AF0E0E832D091505040E695001CD7
:1031C000CAF72BD0FE2F29D0660F771F881FBB1F91
:1031D000261737074807AB07B0E809F0BB0B802D6F
:1031E000BF01FF2793585F4F3AF09E3F510578F09B
:1031F0000C94AF190C94FA195F3FE4F3983ED4F3A2
:10320000869577956795B795F7959F5FC9F7880F6E
:10321000911D9695879597F90895E1E0660F771FC0
:10322000881FBB1F621773078407BA0720F0621B51
:10323000730B840BBA0BEE1F88F7E09508950E947C
:10324000DF1988F09F5798F0B92F9927B751B0F040
:10325000E1F0660F771F881F991F1AF0BA95C9F71A
:1032600014C0B13091F00E94F919B1E008950C94A6
:10327000F919672F782F8827B85F39F0B93FCCF359
:10328000869577956795B395D9F73EF49095809597
:10329000709561957F4F8F4F9F4F0895E89409C0B7
:1032A00097FB3EF490958095709561957F4F8F4F79
:1032B0009F4F9923A9F0F92F96E9BB279395F6958F
:1032C000879577956795B795F111F8CFFAF4BB0F0D
:1032D00011F460FF1BC06F5F7F4F8F4F9F4F16C071
:1032E000882311F096E911C0772321F09EE8872FFB
:1032F000762F05C0662371F096E8862F70E060E0B7
:103300002AF09A95660F771F881FDAF7880F96952F
:10331000879597F90895990F0008550FAA0BE0E8D3
:10332000FEEF16161706E807F907C0F01216130687
:10333000E407F50798F0621B730B840B950B39F4C7
:103340000A2661F0232B242B252B21F408950A262D
:1033500009F4A140A6958FEF811D811D089597F96D
:103360009F6780E870E060E008959FEF80EC08952B
:1033700000240A9416161706180609060895002454
:103380000A9412161306140605060895092E0394CE
:10339000000C11F4882352F0BB0F40F4BF2B11F442
:1033A00060FF04C06F5F7F4F8F4F9F4F089557FDA1
:1033B0009058440F551F59F05F3F71F04795880FA3
:1033C00097FB991F61F09F3F79F08795089512163A
:1033D00013061406551FF2CF4695F1DF08C01616E6
:1033E00017061806991FF1CF869571056105089497
:1033F0000895E894BB2766277727CB0197F90895AE
:103400000E948B1908F48FEF089516F00C94C21ADD
:103410000C94B51968940C94AF190E94DF19A8F3A5
:103420009923C1F3AEF3DF93CF931F930F93FF92D2
:10343000C92FDD2788232AF02197660F771F881F61
:10344000DAF720E030E040E85FEB9FE3883920F0D6
:10345000803E38F021968F770E943C18E8E6F0E035
:1034600004C00E943C18E5E9F0E00E94D01A8B01EC
:10347000BE01EC01FB2E6F5771097595771F880B04
:10348000990B0E94501928E132E741E35FE30E9463
:10349000681AAF2D9801AE01FF900F911F91CF9147
:1034A000DF910E9453180C94C6190E94681A0C945C
:1034B000C6190E94B81938F00E94BF1920F0952350
:1034C00011F00C94AF190C94B51911240C94FA193D
:1034D0000E94D71970F3959FC1F3950F50E0551FC7
:1034E000629FF001729FBB27F00DB11D639FAA2759
:1034F000F00DB11DAA1F649F6627B00DA11D661FA8
:10350000829F2227B00DA11D621F739FB00DA11DC8
:10351000621F839FA00D611D221F749F3327A00D82
:10352000611D231F849F600D211D822F762F6A2F1E
:1035300011249F5750409AF0F1F088234AF0EE0F83
:10354000FF1FBB1F661F771F881F91505040A9F7B0
:103550009E3F510580F00C94AF190C94FA195F3F0F
:10356000E4F3983ED4F3869577956795B795F795EC
:10357000E7959F5FC1F7FE2B880F911D9695879564
:1035800097F908959F3F31F0915020F487957795F2
:103590006795B795880F911D9695879597F908952A
:1035A000DF93CF931F930F93FF92EF92DF927B01F4
:1035B0008C01689406C0DA2EEF010E94681AFE01A1
:1035C000E894A5912591359145915591A6F3EF0188
:1035D0000E945318FE019701A801DA9469F7DF9061
:1035E000EF90FF900F911F91CF91DF910895AA1B4B
:1035F000BB1B51E107C0AA1FBB1FA617B70710F0DE
:10360000A61BB70B881F991F5A95A9F7809590950F
:10361000BC01CD010895A1E21A2EAA1BBB1BFD011E
:103620000DC0AA1FBB1FEE1FFF1FA217B307E407A1
:10363000F50720F0A21BB30BE40BF50B661F771FF9
:10364000881F991F1A9469F76095709580959095D9
:103650009B01AC01BD01CF010895EE0FFF1F059046
:10366000F491E02D09940F931F93CF93DF93823051
:10367000910510F482E090E0E0913703F091380377
:1036800030E020E0B0E0A0E0309799F4211531055A
:1036900009F44AC0281B390B24303105D8F58A813A
:1036A0009B816115710589F1FB0193838283FE0182
:1036B00011C0408151810281138148175907E0F000
:1036C0004817590799F4109761F012960C931297C6
:1036D00013961C933296CF01DF91CF911F910F91DA
:1036E00008950093370310933803F4CF2115310563
:1036F00051F04217530738F0A901DB019A01BD01CF
:10370000DF01F801C1CFEF01F9CF90933803809327
:103710003703CDCFFE01E20FF31F81939193225027
:10372000310939832883D7CF20913503309136036F
:10373000232B41F420910601309107013093360389
:1037400020933503209104013091050121153105A5
:1037500041F42DB73EB74091080150910901241B57
:10376000350BE0913503F0913603E217F307A0F42F
:103770002E1B3F0B2817390778F0AC014E5F5F4FC7
:103780002417350748F04E0F5F1F509336034093C0
:103790003503819391939FCFF0E0E0E09CCFCF93EE
:1037A000DF930097E9F0FC01329713821282A09117
:1037B0003703B0913803ED0130E020E01097A1F419
:1037C00020813181820F931F209135033091360380
:1037D0002817390709F061C0F0933603E0933503E9
:1037E000DF91CF910895EA01CE17DF07E8F54A810E
:1037F0005B819E0141155105B1F7E901FB83EA8325
:1038000049915991C40FD51FEC17FD0761F48081D0
:1038100091810296840F951FE901998388838281A3
:1038200093819B838A83F0E0E0E012968D919C91D6
:1038300013970097B9F52D913C911197CD01029600
:10384000820F931F209135033091360328173907D3
:1038500039F6309751F51092380310923703B09330
:103860003603A0933503BCCFD383C28340815181FB
:10387000840F951FC817D90761F44E5F5F4F888189
:103880009981480F591F518340838A819B8193837B
:1038900082832115310509F0B0CFF0933803E0930E
:1038A00037039ECFFD01DC01C0CF13821282D7CF38
:1038B00081E090E0F8940C94661CFB01DC018D9192
:1038C000019080190110D9F3990B089513E0C6E314
:1038D000D3E004C0FE010E942D1B2196C733D107FF
:0638E000C9F7F894FFCFC8
:1038E60030053005000039038000000000003D046B
:1038F6009D03CA038A04FB03D903ED0300000000FD
:10390600D205A505730F97059E059B059805000032
:1039160000003C089D03730F720FC30E9705E10A62
:10392600B90AD50AC90AE80A97050206AC0C330E8D
:103936007C0E020AE5096D090E092F2F22225C5C16
:103946006208660C6E0A720D7409006E756C6C0066
:10395600747275650066616C736500746F70696377
:103966000073656E736F72006C756D690074656DBA
:0A397600700076656C000D0A000079
:00000001FF
